{
  "contractName": "TappToken",
  "abi": [
    {
      "constant": true,
      "inputs": [],
      "name": "totalSupply",
      "outputs": [
        {
          "name": "",
          "type": "uint256"
        }
      ],
      "payable": false,
      "stateMutability": "view",
      "type": "function"
    },
    {
      "inputs": [],
      "payable": false,
      "stateMutability": "nonpayable",
      "type": "constructor"
    }
  ],
  "bytecode": "0x608060405234801561001057600080fd5b50620f4240600081905550609e806100296000396000f300608060405260043610603f576000357c0100000000000000000000000000000000000000000000000000000000900463ffffffff16806318160ddd146044575b600080fd5b348015604f57600080fd5b506056606c565b6040518082815260200191505060405180910390f35b600054815600a165627a7a72305820c521d4514a4e11ee7e1087085a582874fc0ad8d546ff8ad7b253387b021e86780029",
  "source": "pragma solidity ^0.4.2;\r\n\r\ncontract TappToken {\r\n    //Constructor\r\n    //Set total number of tokens\r\n    //Read the total number of tokens\r\n\r\n    uint256 public totalSupply; //Declare variable \r\n\r\n    function TappToken () public {\r\n        totalSupply = 1000000; //Number of tokens avaliable REQUIRED FUNCTION IN ERC-20 STANDARDS GITHUB\r\n\r\n    }\r\n\r\n}",
  "sourcePath": "C:\\finalProject\\Token\\contracts\\TappToken.sol",
  "compiler": {
    "name": "solc",
    "version": "0.4.26+commit.4563c3fc.Emscripten.clang"
  },
  "schemaVersion": "3.4.13",
  "updatedAt": "2023-03-13T20:56:23.598Z",
  "networkType": "ethereum",
  "devdoc": {
    "methods": {}
  },
  "userdoc": {
    "methods": {}
  }
}